{
  "_format": "hh-sol-artifact-1",
  "contractName": "CoreCave",
  "sourceName": "contracts/CoreCave.sol",
  "abi": [
    {
      "inputs": [],
      "stateMutability": "nonpayable",
      "type": "constructor"
    },
    {
      "anonymous": false,
      "inputs": [
        {
          "indexed": true,
          "internalType": "address",
          "name": "owner",
          "type": "address"
        },
        {
          "indexed": true,
          "internalType": "address",
          "name": "approved",
          "type": "address"
        },
        {
          "indexed": true,
          "internalType": "uint256",
          "name": "tokenId",
          "type": "uint256"
        }
      ],
      "name": "Approval",
      "type": "event"
    },
    {
      "anonymous": false,
      "inputs": [
        {
          "indexed": true,
          "internalType": "address",
          "name": "owner",
          "type": "address"
        },
        {
          "indexed": true,
          "internalType": "address",
          "name": "operator",
          "type": "address"
        },
        {
          "indexed": false,
          "internalType": "bool",
          "name": "approved",
          "type": "bool"
        }
      ],
      "name": "ApprovalForAll",
      "type": "event"
    },
    {
      "anonymous": false,
      "inputs": [
        {
          "indexed": true,
          "internalType": "bytes32",
          "name": "role",
          "type": "bytes32"
        },
        {
          "indexed": true,
          "internalType": "bytes32",
          "name": "previousAdminRole",
          "type": "bytes32"
        },
        {
          "indexed": true,
          "internalType": "bytes32",
          "name": "newAdminRole",
          "type": "bytes32"
        }
      ],
      "name": "RoleAdminChanged",
      "type": "event"
    },
    {
      "anonymous": false,
      "inputs": [
        {
          "indexed": true,
          "internalType": "bytes32",
          "name": "role",
          "type": "bytes32"
        },
        {
          "indexed": true,
          "internalType": "address",
          "name": "account",
          "type": "address"
        },
        {
          "indexed": true,
          "internalType": "address",
          "name": "sender",
          "type": "address"
        }
      ],
      "name": "RoleGranted",
      "type": "event"
    },
    {
      "anonymous": false,
      "inputs": [
        {
          "indexed": true,
          "internalType": "bytes32",
          "name": "role",
          "type": "bytes32"
        },
        {
          "indexed": true,
          "internalType": "address",
          "name": "account",
          "type": "address"
        },
        {
          "indexed": true,
          "internalType": "address",
          "name": "sender",
          "type": "address"
        }
      ],
      "name": "RoleRevoked",
      "type": "event"
    },
    {
      "anonymous": false,
      "inputs": [
        {
          "indexed": true,
          "internalType": "address",
          "name": "from",
          "type": "address"
        },
        {
          "indexed": true,
          "internalType": "address",
          "name": "to",
          "type": "address"
        },
        {
          "indexed": true,
          "internalType": "uint256",
          "name": "tokenId",
          "type": "uint256"
        }
      ],
      "name": "Transfer",
      "type": "event"
    },
    {
      "inputs": [],
      "name": "CREATE_PROJECT_ROLE",
      "outputs": [
        {
          "internalType": "bytes32",
          "name": "",
          "type": "bytes32"
        }
      ],
      "stateMutability": "view",
      "type": "function"
    },
    {
      "inputs": [],
      "name": "DEFAULT_ADMIN_ROLE",
      "outputs": [
        {
          "internalType": "bytes32",
          "name": "",
          "type": "bytes32"
        }
      ],
      "stateMutability": "view",
      "type": "function"
    },
    {
      "inputs": [
        {
          "internalType": "address",
          "name": "to",
          "type": "address"
        },
        {
          "internalType": "uint256",
          "name": "tokenId",
          "type": "uint256"
        }
      ],
      "name": "approve",
      "outputs": [],
      "stateMutability": "nonpayable",
      "type": "function"
    },
    {
      "inputs": [
        {
          "internalType": "address",
          "name": "owner",
          "type": "address"
        }
      ],
      "name": "balanceOf",
      "outputs": [
        {
          "internalType": "uint256",
          "name": "",
          "type": "uint256"
        }
      ],
      "stateMutability": "view",
      "type": "function"
    },
    {
      "inputs": [
        {
          "internalType": "uint256",
          "name": "projectId",
          "type": "uint256"
        },
        {
          "internalType": "string",
          "name": "uri",
          "type": "string"
        },
        {
          "internalType": "uint256[]",
          "name": "prices",
          "type": "uint256[]"
        }
      ],
      "name": "createProject",
      "outputs": [],
      "stateMutability": "nonpayable",
      "type": "function"
    },
    {
      "inputs": [
        {
          "internalType": "uint256",
          "name": "tokenId",
          "type": "uint256"
        }
      ],
      "name": "getApproved",
      "outputs": [
        {
          "internalType": "address",
          "name": "",
          "type": "address"
        }
      ],
      "stateMutability": "view",
      "type": "function"
    },
    {
      "inputs": [
        {
          "internalType": "uint256",
          "name": "projectId",
          "type": "uint256"
        },
        {
          "internalType": "uint8",
          "name": "level",
          "type": "uint8"
        }
      ],
      "name": "getMinePrice",
      "outputs": [
        {
          "internalType": "uint256",
          "name": "",
          "type": "uint256"
        }
      ],
      "stateMutability": "view",
      "type": "function"
    },
    {
      "inputs": [
        {
          "internalType": "bytes32",
          "name": "role",
          "type": "bytes32"
        }
      ],
      "name": "getRoleAdmin",
      "outputs": [
        {
          "internalType": "bytes32",
          "name": "",
          "type": "bytes32"
        }
      ],
      "stateMutability": "view",
      "type": "function"
    },
    {
      "inputs": [
        {
          "internalType": "bytes32",
          "name": "role",
          "type": "bytes32"
        },
        {
          "internalType": "address",
          "name": "account",
          "type": "address"
        }
      ],
      "name": "grantRole",
      "outputs": [],
      "stateMutability": "nonpayable",
      "type": "function"
    },
    {
      "inputs": [
        {
          "internalType": "bytes32",
          "name": "role",
          "type": "bytes32"
        },
        {
          "internalType": "address",
          "name": "account",
          "type": "address"
        }
      ],
      "name": "hasRole",
      "outputs": [
        {
          "internalType": "bool",
          "name": "",
          "type": "bool"
        }
      ],
      "stateMutability": "view",
      "type": "function"
    },
    {
      "inputs": [
        {
          "internalType": "address",
          "name": "owner",
          "type": "address"
        },
        {
          "internalType": "address",
          "name": "operator",
          "type": "address"
        }
      ],
      "name": "isApprovedForAll",
      "outputs": [
        {
          "internalType": "bool",
          "name": "",
          "type": "bool"
        }
      ],
      "stateMutability": "view",
      "type": "function"
    },
    {
      "inputs": [],
      "name": "max",
      "outputs": [
        {
          "internalType": "uint8",
          "name": "",
          "type": "uint8"
        }
      ],
      "stateMutability": "view",
      "type": "function"
    },
    {
      "inputs": [
        {
          "internalType": "uint256",
          "name": "projectId",
          "type": "uint256"
        }
      ],
      "name": "mine",
      "outputs": [],
      "stateMutability": "payable",
      "type": "function"
    },
    {
      "inputs": [],
      "name": "name",
      "outputs": [
        {
          "internalType": "string",
          "name": "",
          "type": "string"
        }
      ],
      "stateMutability": "view",
      "type": "function"
    },
    {
      "inputs": [
        {
          "internalType": "uint256",
          "name": "tokenId",
          "type": "uint256"
        }
      ],
      "name": "ownerOf",
      "outputs": [
        {
          "internalType": "address",
          "name": "",
          "type": "address"
        }
      ],
      "stateMutability": "view",
      "type": "function"
    },
    {
      "inputs": [
        {
          "internalType": "uint256",
          "name": "",
          "type": "uint256"
        }
      ],
      "name": "projectToLevel",
      "outputs": [
        {
          "internalType": "uint8",
          "name": "",
          "type": "uint8"
        }
      ],
      "stateMutability": "view",
      "type": "function"
    },
    {
      "inputs": [
        {
          "internalType": "uint256",
          "name": "",
          "type": "uint256"
        }
      ],
      "name": "projectToPeopleUpLevel",
      "outputs": [
        {
          "internalType": "address",
          "name": "",
          "type": "address"
        }
      ],
      "stateMutability": "view",
      "type": "function"
    },
    {
      "inputs": [
        {
          "internalType": "uint256",
          "name": "",
          "type": "uint256"
        },
        {
          "internalType": "uint256",
          "name": "",
          "type": "uint256"
        }
      ],
      "name": "projectToPrices",
      "outputs": [
        {
          "internalType": "uint256",
          "name": "",
          "type": "uint256"
        }
      ],
      "stateMutability": "view",
      "type": "function"
    },
    {
      "inputs": [
        {
          "internalType": "uint256",
          "name": "",
          "type": "uint256"
        }
      ],
      "name": "projectToUri",
      "outputs": [
        {
          "internalType": "string",
          "name": "",
          "type": "string"
        }
      ],
      "stateMutability": "view",
      "type": "function"
    },
    {
      "inputs": [
        {
          "internalType": "bytes32",
          "name": "role",
          "type": "bytes32"
        },
        {
          "internalType": "address",
          "name": "account",
          "type": "address"
        }
      ],
      "name": "renounceRole",
      "outputs": [],
      "stateMutability": "nonpayable",
      "type": "function"
    },
    {
      "inputs": [
        {
          "internalType": "bytes32",
          "name": "role",
          "type": "bytes32"
        },
        {
          "internalType": "address",
          "name": "account",
          "type": "address"
        }
      ],
      "name": "revokeRole",
      "outputs": [],
      "stateMutability": "nonpayable",
      "type": "function"
    },
    {
      "inputs": [
        {
          "internalType": "address",
          "name": "from",
          "type": "address"
        },
        {
          "internalType": "address",
          "name": "to",
          "type": "address"
        },
        {
          "internalType": "uint256",
          "name": "tokenId",
          "type": "uint256"
        }
      ],
      "name": "safeTransferFrom",
      "outputs": [],
      "stateMutability": "nonpayable",
      "type": "function"
    },
    {
      "inputs": [
        {
          "internalType": "address",
          "name": "from",
          "type": "address"
        },
        {
          "internalType": "address",
          "name": "to",
          "type": "address"
        },
        {
          "internalType": "uint256",
          "name": "tokenId",
          "type": "uint256"
        },
        {
          "internalType": "bytes",
          "name": "data",
          "type": "bytes"
        }
      ],
      "name": "safeTransferFrom",
      "outputs": [],
      "stateMutability": "nonpayable",
      "type": "function"
    },
    {
      "inputs": [
        {
          "internalType": "address",
          "name": "operator",
          "type": "address"
        },
        {
          "internalType": "bool",
          "name": "approved",
          "type": "bool"
        }
      ],
      "name": "setApprovalForAll",
      "outputs": [],
      "stateMutability": "nonpayable",
      "type": "function"
    },
    {
      "inputs": [
        {
          "internalType": "address",
          "name": "walletCorecaveAddress",
          "type": "address"
        },
        {
          "internalType": "address",
          "name": "walletProjectaddres",
          "type": "address"
        }
      ],
      "name": "setWallet",
      "outputs": [],
      "stateMutability": "nonpayable",
      "type": "function"
    },
    {
      "inputs": [
        {
          "internalType": "bytes4",
          "name": "interfaceId",
          "type": "bytes4"
        }
      ],
      "name": "supportsInterface",
      "outputs": [
        {
          "internalType": "bool",
          "name": "",
          "type": "bool"
        }
      ],
      "stateMutability": "view",
      "type": "function"
    },
    {
      "inputs": [],
      "name": "symbol",
      "outputs": [
        {
          "internalType": "string",
          "name": "",
          "type": "string"
        }
      ],
      "stateMutability": "view",
      "type": "function"
    },
    {
      "inputs": [
        {
          "internalType": "uint256",
          "name": "tokenId",
          "type": "uint256"
        }
      ],
      "name": "tokenURI",
      "outputs": [
        {
          "internalType": "string",
          "name": "",
          "type": "string"
        }
      ],
      "stateMutability": "view",
      "type": "function"
    },
    {
      "inputs": [
        {
          "internalType": "address",
          "name": "from",
          "type": "address"
        },
        {
          "internalType": "address",
          "name": "to",
          "type": "address"
        },
        {
          "internalType": "uint256",
          "name": "tokenId",
          "type": "uint256"
        }
      ],
      "name": "transferFrom",
      "outputs": [],
      "stateMutability": "nonpayable",
      "type": "function"
    },
    {
      "inputs": [],
      "name": "walletCorecave",
      "outputs": [
        {
          "internalType": "address",
          "name": "",
          "type": "address"
        }
      ],
      "stateMutability": "view",
      "type": "function"
    },
    {
      "inputs": [],
      "name": "walletProject",
      "outputs": [
        {
          "internalType": "address",
          "name": "",
          "type": "address"
        }
      ],
      "stateMutability": "view",
      "type": "function"
    }
  ],
  "bytecode": "0x60806040526009805460ff191660061790553480156200001e57600080fd5b506040805180820182526008815267436f72654361766560c01b6020808301918252835180850190945260048452631353919560e21b9084015281519192916200006b916000916200013e565b508051620000819060019060208401906200013e565b50620000939150600090503362000099565b62000221565b60008281526007602090815260408083206001600160a01b038516845290915290205460ff166200013a5760008281526007602090815260408083206001600160a01b03851684529091529020805460ff19166001179055620000f93390565b6001600160a01b0316816001600160a01b0316837f2f8788117e7eff1d82e926ec794901d17c78024a50270940304540a733656f0d60405160405180910390a45b5050565b8280546200014c90620001e4565b90600052602060002090601f016020900481019282620001705760008555620001bb565b82601f106200018b57805160ff1916838001178555620001bb565b82800160010185558215620001bb579182015b82811115620001bb5782518255916020019190600101906200019e565b50620001c9929150620001cd565b5090565b5b80821115620001c95760008155600101620001ce565b600181811c90821680620001f957607f821691505b602082108114156200021b57634e487b7160e01b600052602260045260246000fd5b50919050565b61270980620002316000396000f3fe6080604052600436106101d85760003560e01c80637670e16d11610102578063a64d0b2611610095578063d3bc816911610064578063d3bc8169146105a0578063d547741f146105d4578063e985e9c5146105f4578063f1b234ad1461063d57600080fd5b8063a64d0b2614610520578063b44b5e5314610540578063b88d4fde14610560578063c87b56dd1461058057600080fd5b806395d89b41116100d157806395d89b41146104b657806398a370e5146104cb578063a217fddf146104eb578063a22cb4651461050057600080fd5b80637670e16d146104215780637aef1c1c1461044657806391d148541461047657806393fd1f541461049657600080fd5b80632877b0b31161017a5780634d474898116101495780634d474898146103a25780636352211e146103b55780636ac5db19146103d557806370a082311461040157600080fd5b80632877b0b31461030c5780632f2ff15d1461034257806336568abe1461036257806342842e0e1461038257600080fd5b8063095ea7b3116101b6578063095ea7b31461026c5780630a2c3a621461028e57806323b872dd146102ae578063248a9ca3146102ce57600080fd5b806301ffc9a7146101dd57806306fdde0314610212578063081812fc14610234575b600080fd5b3480156101e957600080fd5b506101fd6101f8366004611f8b565b61065d565b60405190151581526020015b60405180910390f35b34801561021e57600080fd5b5061022761066e565b6040516102099190612000565b34801561024057600080fd5b5061025461024f366004612013565b610700565b6040516001600160a01b039091168152602001610209565b34801561027857600080fd5b5061028c610287366004612048565b610727565b005b34801561029a57600080fd5b50600a54610254906001600160a01b031681565b3480156102ba57600080fd5b5061028c6102c9366004612072565b610842565b3480156102da57600080fd5b506102fe6102e9366004612013565b60009081526007602052604090206001015490565b604051908152602001610209565b34801561031857600080fd5b50610254610327366004612013565b600d602052600090815260409020546001600160a01b031681565b34801561034e57600080fd5b5061028c61035d3660046120ae565b610873565b34801561036e57600080fd5b5061028c61037d3660046120ae565b610898565b34801561038e57600080fd5b5061028c61039d366004612072565b610916565b61028c6103b0366004612013565b610931565b3480156103c157600080fd5b506102546103d0366004612013565b610a6f565b3480156103e157600080fd5b506009546103ef9060ff1681565b60405160ff9091168152602001610209565b34801561040d57600080fd5b506102fe61041c3660046120da565b610acf565b34801561042d57600080fd5b506009546102549061010090046001600160a01b031681565b34801561045257600080fd5b506103ef610461366004612013565b600b6020526000908152604090205460ff1681565b34801561048257600080fd5b506101fd6104913660046120ae565b610b55565b3480156104a257600080fd5b5061028c6104b1366004612194565b610b80565b3480156104c257600080fd5b50610227610c53565b3480156104d757600080fd5b506102fe6104e6366004612280565b610c62565b3480156104f757600080fd5b506102fe600081565b34801561050c57600080fd5b5061028c61051b3660046122a2565b610c93565b34801561052c57600080fd5b5061022761053b366004612013565b610c9e565b34801561054c57600080fd5b506102fe61055b3660046122de565b610d38565b34801561056c57600080fd5b5061028c61057b366004612309565b610d77565b34801561058c57600080fd5b5061022761059b366004612013565b610daf565b3480156105ac57600080fd5b506102fe7fe3913a6d776209a46e707c2e826c677dbba1d7579bc9786273499a2ee50321dd81565b3480156105e057600080fd5b5061028c6105ef3660046120ae565b610ec0565b34801561060057600080fd5b506101fd61060f366004612385565b6001600160a01b03918216600090815260056020908152604080832093909416825291909152205460ff1690565b34801561064957600080fd5b5061028c610658366004612385565b610ee5565b600061066882610f6a565b92915050565b60606000805461067d906123af565b80601f01602080910402602001604051908101604052809291908181526020018280546106a9906123af565b80156106f65780601f106106cb576101008083540402835291602001916106f6565b820191906000526020600020905b8154815290600101906020018083116106d957829003601f168201915b5050505050905090565b600061070b82610f8f565b506000908152600460205260409020546001600160a01b031690565b600061073282610a6f565b9050806001600160a01b0316836001600160a01b031614156107a55760405162461bcd60e51b815260206004820152602160248201527f4552433732313a20617070726f76616c20746f2063757272656e74206f776e656044820152603960f91b60648201526084015b60405180910390fd5b336001600160a01b03821614806107c157506107c1813361060f565b6108335760405162461bcd60e51b815260206004820152603e60248201527f4552433732313a20617070726f76652063616c6c6572206973206e6f7420746f60448201527f6b656e206f776e6572206e6f7220617070726f76656420666f7220616c6c0000606482015260840161079c565b61083d8383610ff1565b505050565b61084c338261105f565b6108685760405162461bcd60e51b815260040161079c906123ea565b61083d8383836110dd565b60008281526007602052604090206001015461088e81611279565b61083d8383611283565b6001600160a01b03811633146109085760405162461bcd60e51b815260206004820152602f60248201527f416363657373436f6e74726f6c3a2063616e206f6e6c792072656e6f756e636560448201526e103937b632b9903337b91039b2b63360891b606482015260840161079c565b6109128282611309565b5050565b61083d83838360405180602001604052806000815250610d77565b6000818152600b602052604090205461094e90829060ff16610d38565b341461099c5760405162461bcd60e51b815260206004820152601860248201527f4e6f7420656e6f756768206d6f6e657920746f206d696e650000000000000000604482015260640161079c565b6000818152600d6020908152604080832054600954600b9093529220546001600160a01b039092169160ff908116911614156109ee576109db82611370565b5060095461091290839060ff1683611439565b6000828152600b60205260408120805460019290610a1090849060ff1661244e565b82546101009290920a60ff8181021990931691831602179091556000848152600d602090815260408083208054336001600160a01b0319909116179055600b90915290205461091292508491610a699160019116612473565b83611439565b6000818152600260205260408120546001600160a01b0316806106685760405162461bcd60e51b8152602060048201526018602482015277115490cdcc8c4e881a5b9d985b1a59081d1bdad95b88125160421b604482015260640161079c565b60006001600160a01b038216610b395760405162461bcd60e51b815260206004820152602960248201527f4552433732313a2061646472657373207a65726f206973206e6f7420612076616044820152683634b21037bbb732b960b91b606482015260840161079c565b506001600160a01b031660009081526003602052604090205490565b60009182526007602090815260408084206001600160a01b0393909316845291905290205460ff1690565b610baa7fe3913a6d776209a46e707c2e826c677dbba1d7579bc9786273499a2ee50321dd33610b55565b610bf65760405162461bcd60e51b815260206004820152601c60248201527f6e6f742068617665206372656174652070726f6a65637420726f6c6500000000604482015260640161079c565b6000838152600c602090815260409091208351610c1592850190611ea2565b506000838152600e602090815260409091208251610c3592840190611f26565b5050506000908152600b60205260409020805460ff19166001179055565b60606001805461067d906123af565b600e6020528160005260406000208181548110610c7e57600080fd5b90600052602060002001600091509150505481565b61091233838361168f565b600c6020526000908152604090208054610cb7906123af565b80601f0160208091040260200160405190810160405280929190818152602001828054610ce3906123af565b8015610d305780601f10610d0557610100808354040283529160200191610d30565b820191906000526020600020905b815481529060010190602001808311610d1357829003601f168201915b505050505081565b6000828152600e60205260408120610d51600184612473565b60ff1681548110610d6457610d64612496565b9060005260206000200154905092915050565b610d81338361105f565b610d9d5760405162461bcd60e51b815260040161079c906123ea565b610da98484848461175e565b50505050565b6060610dba82610f8f565b60008281526006602052604081208054610dd3906123af565b80601f0160208091040260200160405190810160405280929190818152602001828054610dff906123af565b8015610e4c5780601f10610e2157610100808354040283529160200191610e4c565b820191906000526020600020905b815481529060010190602001808311610e2f57829003601f168201915b505050505090506000610e6a60408051602081019091526000815290565b9050805160001415610e7d575092915050565b815115610eaf578082604051602001610e979291906124ac565b60405160208183030381529060405292505050919050565b610eb884611791565b949350505050565b600082815260076020526040902060010154610edb81611279565b61083d8383611309565b610ef0600033610b55565b610f325760405162461bcd60e51b81526020600482015260136024820152726e6f7420686176652061646d696e20726f6c6560681b604482015260640161079c565b60098054610100600160a81b0319166101006001600160a01b0394851602179055600a80546001600160a01b03191691909216179055565b60006001600160e01b03198216637965db0b60e01b1480610668575061066882611805565b6000818152600260205260409020546001600160a01b0316610fee5760405162461bcd60e51b8152602060048201526018602482015277115490cdcc8c4e881a5b9d985b1a59081d1bdad95b88125160421b604482015260640161079c565b50565b600081815260046020526040902080546001600160a01b0319166001600160a01b038416908117909155819061102682610a6f565b6001600160a01b03167f8c5be1e5ebec7d5bd14f71427d1e84f3dd0314c0f7b2291e5b200ac8c7c3b92560405160405180910390a45050565b60008061106b83610a6f565b9050806001600160a01b0316846001600160a01b031614806110b257506001600160a01b0380821660009081526005602090815260408083209388168352929052205460ff165b80610eb85750836001600160a01b03166110cb84610700565b6001600160a01b031614949350505050565b826001600160a01b03166110f082610a6f565b6001600160a01b0316146111545760405162461bcd60e51b815260206004820152602560248201527f4552433732313a207472616e736665722066726f6d20696e636f72726563742060448201526437bbb732b960d91b606482015260840161079c565b6001600160a01b0382166111b65760405162461bcd60e51b8152602060048201526024808201527f4552433732313a207472616e7366657220746f20746865207a65726f206164646044820152637265737360e01b606482015260840161079c565b6111c1600082610ff1565b6001600160a01b03831660009081526003602052604081208054600192906111ea9084906124db565b90915550506001600160a01b03821660009081526003602052604081208054600192906112189084906124f2565b909155505060008181526002602052604080822080546001600160a01b0319166001600160a01b0386811691821790925591518493918716917fddf252ad1be2c89b69c2b068fc378daa952ba7f163c4a11628f55a4df523b3ef91a4505050565b610fee8133611855565b61128d8282610b55565b6109125760008281526007602090815260408083206001600160a01b03851684529091529020805460ff191660011790556112c53390565b6001600160a01b0316816001600160a01b0316837f2f8788117e7eff1d82e926ec794901d17c78024a50270940304540a733656f0d60405160405180910390a45050565b6113138282610b55565b156109125760008281526007602090815260408083206001600160a01b0385168085529252808320805460ff1916905551339285917ff6391f5c32d9c69d2a47ea670b442974b53935d1edc7fd64eb21e047a839171b9190a45050565b6000611380600880546001019055565b600061138b60085490565b905061139733826118b9565b6000838152600c6020526040902080546106689183916113b6906123af565b80601f01602080910402602001604051908101604052809291908181526020018280546113e2906123af565b801561142f5780601f106114045761010080835404028352916020019161142f565b820191906000526020600020905b81548152906001019060200180831161141257829003601f168201915b50505050506119fb565b8160ff16600114156114e55760006114518484610d38565b60095490915061010090046001600160a01b03166108fc611473600284612520565b6040518115909202916000818181858888f1935050505015801561149b573d6000803e3d6000fd5b50600a546001600160a01b03166108fc6114b6600284612520565b6040518115909202916000818181858888f193505050501580156114de573d6000803e3d6000fd5b5050505050565b60006114f18484610d38565b60095490915061010090046001600160a01b03166108fc611513600a84612520565b6040518115909202916000818181858888f1935050505015801561153b573d6000803e3d6000fd5b50600a546001600160a01b03166108fc6005611558846002612534565b6115629190612520565b6040518115909202916000818181858888f1935050505015801561158a573d6000803e3d6000fd5b506001600160a01b0382166108fc6115a3600284612520565b6040518115909202916000818181858888f193505050501580156115cb573d6000803e3d6000fd5b506115f68360ff16604051806040016040528060058152602001641b195d995b60da1b815250611a95565b611625611604600a83612520565b6040518060400160405280600381526020016231302560e81b815250611a95565b6116606005611635836002612534565b61163f9190612520565b6040518060400160405280600381526020016234302560e81b815250611a95565b610da961166e600283612520565b6040518060400160405280600381526020016235302560e81b815250611a95565b816001600160a01b0316836001600160a01b031614156116f15760405162461bcd60e51b815260206004820152601960248201527f4552433732313a20617070726f766520746f2063616c6c657200000000000000604482015260640161079c565b6001600160a01b03838116600081815260056020908152604080832094871680845294825291829020805460ff191686151590811790915591519182527f17307eab39ab6107e8899845ad3d59bd9653f200f220920489ca2b5937696c31910160405180910390a3505050565b6117698484846110dd565b61177584848484611ada565b610da95760405162461bcd60e51b815260040161079c90612553565b606061179c82610f8f565b60006117b360408051602081019091526000815290565b905060008151116117d357604051806020016040528060008152506117fe565b806117dd84611be7565b6040516020016117ee9291906124ac565b6040516020818303038152906040525b9392505050565b60006001600160e01b031982166380ac58cd60e01b148061183657506001600160e01b03198216635b5e139f60e01b145b8061066857506301ffc9a760e01b6001600160e01b0319831614610668565b61185f8282610b55565b61091257611877816001600160a01b03166014611ce5565b611882836020611ce5565b6040516020016118939291906125a5565b60408051601f198184030181529082905262461bcd60e51b825261079c91600401612000565b6001600160a01b03821661190f5760405162461bcd60e51b815260206004820181905260248201527f4552433732313a206d696e7420746f20746865207a65726f2061646472657373604482015260640161079c565b6000818152600260205260409020546001600160a01b0316156119745760405162461bcd60e51b815260206004820152601c60248201527f4552433732313a20746f6b656e20616c7265616479206d696e74656400000000604482015260640161079c565b6001600160a01b038216600090815260036020526040812080546001929061199d9084906124f2565b909155505060008181526002602052604080822080546001600160a01b0319166001600160a01b03861690811790915590518392907fddf252ad1be2c89b69c2b068fc378daa952ba7f163c4a11628f55a4df523b3ef908290a45050565b6000828152600260205260409020546001600160a01b0316611a765760405162461bcd60e51b815260206004820152602e60248201527f45524337323155524953746f726167653a2055524920736574206f66206e6f6e60448201526d32bc34b9ba32b73a103a37b5b2b760911b606482015260840161079c565b6000828152600660209081526040909120825161083d92840190611ea2565b6109128282604051602401611aab92919061261a565b60408051601f198184030181529190526020810180516001600160e01b031663643fd0df60e01b179052611e81565b60006001600160a01b0384163b15611bdc57604051630a85bd0160e11b81526001600160a01b0385169063150b7a0290611b1e903390899088908890600401612633565b602060405180830381600087803b158015611b3857600080fd5b505af1925050508015611b68575060408051601f3d908101601f19168201909252611b6591810190612670565b60015b611bc2573d808015611b96576040519150601f19603f3d011682016040523d82523d6000602084013e611b9b565b606091505b508051611bba5760405162461bcd60e51b815260040161079c90612553565b805181602001fd5b6001600160e01b031916630a85bd0160e11b149050610eb8565b506001949350505050565b606081611c0b5750506040805180820190915260018152600360fc1b602082015290565b8160005b8115611c355780611c1f8161268d565b9150611c2e9050600a83612520565b9150611c0f565b60008167ffffffffffffffff811115611c5057611c506120f5565b6040519080825280601f01601f191660200182016040528015611c7a576020820181803683370190505b5090505b8415610eb857611c8f6001836124db565b9150611c9c600a866126a8565b611ca79060306124f2565b60f81b818381518110611cbc57611cbc612496565b60200101906001600160f81b031916908160001a905350611cde600a86612520565b9450611c7e565b60606000611cf4836002612534565b611cff9060026124f2565b67ffffffffffffffff811115611d1757611d176120f5565b6040519080825280601f01601f191660200182016040528015611d41576020820181803683370190505b509050600360fc1b81600081518110611d5c57611d5c612496565b60200101906001600160f81b031916908160001a905350600f60fb1b81600181518110611d8b57611d8b612496565b60200101906001600160f81b031916908160001a9053506000611daf846002612534565b611dba9060016124f2565b90505b6001811115611e32576f181899199a1a9b1b9c1cb0b131b232b360811b85600f1660108110611dee57611dee612496565b1a60f81b828281518110611e0457611e04612496565b60200101906001600160f81b031916908160001a90535060049490941c93611e2b816126bc565b9050611dbd565b5083156117fe5760405162461bcd60e51b815260206004820181905260248201527f537472696e67733a20686578206c656e67746820696e73756666696369656e74604482015260640161079c565b80516a636f6e736f6c652e6c6f67602083016000808483855afa5050505050565b828054611eae906123af565b90600052602060002090601f016020900481019282611ed05760008555611f16565b82601f10611ee957805160ff1916838001178555611f16565b82800160010185558215611f16579182015b82811115611f16578251825591602001919060010190611efb565b50611f22929150611f60565b5090565b828054828255906000526020600020908101928215611f165791602002820182811115611f16578251825591602001919060010190611efb565b5b80821115611f225760008155600101611f61565b6001600160e01b031981168114610fee57600080fd5b600060208284031215611f9d57600080fd5b81356117fe81611f75565b60005b83811015611fc3578181015183820152602001611fab565b83811115610da95750506000910152565b60008151808452611fec816020860160208601611fa8565b601f01601f19169290920160200192915050565b6020815260006117fe6020830184611fd4565b60006020828403121561202557600080fd5b5035919050565b80356001600160a01b038116811461204357600080fd5b919050565b6000806040838503121561205b57600080fd5b6120648361202c565b946020939093013593505050565b60008060006060848603121561208757600080fd5b6120908461202c565b925061209e6020850161202c565b9150604084013590509250925092565b600080604083850312156120c157600080fd5b823591506120d16020840161202c565b90509250929050565b6000602082840312156120ec57600080fd5b6117fe8261202c565b634e487b7160e01b600052604160045260246000fd5b604051601f8201601f1916810167ffffffffffffffff81118282101715612134576121346120f5565b604052919050565b600067ffffffffffffffff831115612156576121566120f5565b612169601f8401601f191660200161210b565b905082815283838301111561217d57600080fd5b828260208301376000602084830101529392505050565b6000806000606084860312156121a957600080fd5b8335925060208085013567ffffffffffffffff808211156121c957600080fd5b818701915087601f8301126121dd57600080fd5b6121eb88833585850161213c565b9450604087013591508082111561220157600080fd5b818701915087601f83011261221557600080fd5b813581811115612227576122276120f5565b8060051b915061223884830161210b565b818152918301840191848101908a84111561225257600080fd5b938501935b8385101561227057843582529385019390850190612257565b8096505050505050509250925092565b6000806040838503121561229357600080fd5b50508035926020909101359150565b600080604083850312156122b557600080fd5b6122be8361202c565b9150602083013580151581146122d357600080fd5b809150509250929050565b600080604083850312156122f157600080fd5b82359150602083013560ff811681146122d357600080fd5b6000806000806080858703121561231f57600080fd5b6123288561202c565b93506123366020860161202c565b925060408501359150606085013567ffffffffffffffff81111561235957600080fd5b8501601f8101871361236a57600080fd5b6123798782356020840161213c565b91505092959194509250565b6000806040838503121561239857600080fd5b6123a18361202c565b91506120d16020840161202c565b600181811c908216806123c357607f821691505b602082108114156123e457634e487b7160e01b600052602260045260246000fd5b50919050565b6020808252602e908201527f4552433732313a2063616c6c6572206973206e6f7420746f6b656e206f776e6560408201526d1c881b9bdc88185c1c1c9bdd995960921b606082015260800190565b634e487b7160e01b600052601160045260246000fd5b600060ff821660ff84168060ff0382111561246b5761246b612438565b019392505050565b600060ff821660ff84168082101561248d5761248d612438565b90039392505050565b634e487b7160e01b600052603260045260246000fd5b600083516124be818460208801611fa8565b8351908301906124d2818360208801611fa8565b01949350505050565b6000828210156124ed576124ed612438565b500390565b6000821982111561250557612505612438565b500190565b634e487b7160e01b600052601260045260246000fd5b60008261252f5761252f61250a565b500490565b600081600019048311821515161561254e5761254e612438565b500290565b60208082526032908201527f4552433732313a207472616e7366657220746f206e6f6e20455243373231526560408201527131b2b4bb32b91034b6b83632b6b2b73a32b960711b606082015260800190565b7f416363657373436f6e74726f6c3a206163636f756e74200000000000000000008152600083516125dd816017850160208801611fa8565b7001034b99036b4b9b9b4b733903937b6329607d1b601791840191820152835161260e816028840160208801611fa8565b01602801949350505050565b828152604060208201526000610eb86040830184611fd4565b6001600160a01b038581168252841660208201526040810183905260806060820181905260009061266690830184611fd4565b9695505050505050565b60006020828403121561268257600080fd5b81516117fe81611f75565b60006000198214156126a1576126a1612438565b5060010190565b6000826126b7576126b761250a565b500690565b6000816126cb576126cb612438565b50600019019056fea26469706673582212202db98a357ec44fd8a91021ceeffa08f23a48e146d6a5430fcc40cd4c0171fc0964736f6c63430008090033",
  "linkReferences": {},
  "deployedLinkReferences": {}
}